S0220000496E6475737472792D62617365642D536D6172742D48656C6D65742E73333784
S31500000000010000000D900D90D0BF0100010000001E
S3150000001000102000A3187D1B000000000000000057
S3150000002000000000000000000000000000000000CA
S315000000300000000000000000000000000D900D9080
S31500000040A55A0000002020080000008000000000E3
S31500000050000000000000000000000000000000009A
S31500000060000000000000000000000000000000008A
S31500000070000000000000000000000000000000007A
S31500000080000000000000000000000000000000006A
S31500001000184D0100554F2008094F2008094F2008A8
S31500001010094F2008094F2008094F2008000000004A
S3150000102000000000000000000000000051452008FC
S31500001030094F200800000000A1452008DB2D2008EC
S31500001040094F2008094F2008094F2008094F20089A
S31500001050094F2008094F2008094F2008094F20088A
S31500001060094F2008094F200819110000FD762008B5
S31500001070B1582008094F2008094F2008094F2008B9
S31500001080094F2008094F2008094F2008094F20085A
S31500001090094F2008094F2008094F2008094F20084A
S315000010A0094F2008094F2008094F2008094F20083A
S315000010B0094F2008094F2008184D0100094F200844
S315000010C0554F200871100000094F2008094F2008CD
S315000010D0094F2008094F200899582008A5582008CC
S315000010E0854E2008094F2008094F2008F3C3AD6933
S315000010F0094F2008094F2008094F2008094F2008EA
S31500001100094F2008094F2008094F2008094F2008D9
S31500001110094F2008094F2008094F2008094F2008C9
S31500001120094F2008094F2008094F2008094F2008B9
S31500001130094F2008094F2008094F2008094F2008A9
S31500001140094F2008094F2008094F2008094F200899
S31500001150094F2008094F2008094F2008094F200889
S31500001160094F2008094F200825A02008000000008C
S315000011700000000000000000000000000000000069
S315000011800348044B834202D0034B03B11847704710
S315000011904027000040270000000000000548064BDD
S315000011A01B1AD90F01EBA301491002D0034B03B15F
S315000011B01847704740270000402700000000000045
S315000011C010B5064C237843B9FFF7DAFF044B13B189
S315000011D00448AFF300800123237010BD40270000B0
S315000011E00000000044A1210808B5054B1BB10549C4
S315000011F00548AFF30080BDE80840FFF7CFBF00BF4A
S31500001200000000004427000044A1210870B50646EE
S3150000121008480C461D4611F0DDF8B6F1004F74F192
S31500001220000405D30448294611F06CF8012070BD6E
S315000012300020FCE76858210874582108F0B5124DC3
S315000012400E4607460FCD89B001AC0FC495E80700DE
S3150000125084E80700326B31680C4811F053F896F8B1
S315000012602C3053B9C8230A48ADF80430094B029311
S31500001270059011F033FBCDE9060001A938460DF0C3
S31500001280DDFE002009B0F0BD20842108A358210806
S3150000129010000000CB582108F0B5134E354607461E
S315000012A00FCD8BB003AC0FC495E8070084E80700A8
S315000012B0D6E907014FF4CA72ADF80C200B4A01AB10
S315000012C083E80300CDE904230123ADF81830084B69
S315000012D0079303A90D233846CDE908330DF0AEFE7A
S315000012E000200BB0F0BD00BF20842108D55821088E
S315000012F0E0582108F0B51F4D0F4606460FCD89B0C0
S3150000130001AC0FC495E8070084E807003A6B39681A
S31500001310194810F0F7FF97F82C3033BBC823ADF807
S315000013200430164B0293164B05934FF4007242F2AB
S31500001330E33301A93046CDE906230DF07FFE42F2E4
S31500001340E315DDE90513B5F5007F2C4628BF4FF4FC
S31500001350007419442246304605910DF09BFF2D1B63
S315000013600694EED1002009B0F0BD01A930460DF07B
S3150000137065FEF7E720842108A3582108CB582108E9
S31500001380C45F21082DE9F04F5F4D894606460FCD13
S31500001390ADF5077D0CAC0FC495E8070084E807009F
S315000013A0D9F83020D9F80010584810F0ABFF99F85A
S315000013B02C30012B61D10025C422294655A80DF1F8
S315000013C04C08549511F064F96022294614A854AFCC
S315000013D00B95C8F8005011F05BF9C72308A93046F1
S315000013E00A93CDF8209009970DF0BCFD05A80FF0E3
S315000013F055FCA02229462CA811F04AF90A2300938D
S31500001400D9F830202CAB394605A80FF0BBFA2CAC26
S315000014100395AB46237C032B1BD16369A2693C4928
S3150000142007EB0309A2EB030A5246484611F006F9F8
S3150000143040BB94F82030032B0BD1D4E90932F918BC
S315000014400091D31A3348344A202110F0CBFF4FF0D5
S31500001450010B203444AB9C42DCD1BBF1000F03D01E
S3150000146015B1039B002B33D14FF4C873ADF8303060
S315000014702A4B10930F23CDE911330CA930460DF0FA
S31500001480DDFD3CE026495246484611F0D7F858B9EA
S31500001490D4E90932F9180091D31A22481E4A40218C
S315000014A010F0A0FF0125D4E71F495246484611F027
S315000014B0C5F80028CDD1D4E90932F9180091D31A1C
S315000014C01A48154A202110F08DFF01230393C0E727
S315000014D01749404611F099F9C823ADF83030404617
S315000014E0144B0D93CDF8408011F0F8F90CA9CDE915
S315000014F0110030460DF0A2FD0F4B02221A7000209B
S315000015000DF5077DBDE8F08F20842108A35821083A
S31500001510EE582108BC270000F3582108115921086C
S31500001520F85821087C270000035921085C27000091
S3150000153021592108325921081C28000010B50648F7
S31500001540144610F0DFFE204602F076FB034810F04A
S3150000155041FF002010BD00BF43592108415A210810
S3150000156010B50648144610F0CDFE204602F064FB86
S31500001570034810F02FFF002010BD00BF605921085E
S31500001580415A21082DE9F04FB0F1004F89B071F1B1
S315000015900001129D1368174605D3344A01201360D3
S315000015A009B0BDE8F08FDBB12846314ADFF8D490A8
S315000015B0DFF8D4A0DFF8D4B040F2CF7110F012FFFC
S315000015C0C0F5F9640544073407F10C064FF000082E
S315000015D03B68984509D3274A2146284610F002FF62
S315000015E0254B01221A700020DAE716F8033C16F89C
S315000015F0012C082B94BF5AF823304B46CDE9003214
S31500001600214633465A46284610F0ECFE16F8022CC0
S3150000161096F82230069216F8042C059296F82720A2
S31500001620049296F82620039296F82520029296F8C0
S315000016302420019296F823200092241A054421467C
S3150000164028460E4A10F0CEFE3B68013B98450544FD
S31500001650A4EB000406D221462846094A10F0C2FE31
S315000016600544241A08F101082E36B1E720280000A7
S31500001670825921082C5A2108922C0000E159210890
S31500001680DF5921087A592108705E2108A5592108D9
S315000016902DE9F043504D894606460FCD95B06C4670
S315000016A00FC495E8070099F82C8084E80700B8F184
S315000016B0000F40F08C804FF4FA600FF0ABFF474DFF
S315000016C007460FCD07AC0FC40FCD0FC40FCD0FC407
S315000016D02B68D9F83020D9F800104148236010F063
S315000016E011FE4FF4FA624146384610F0D1FF3D4CE8
S315000016F03D4810F06FFE3D4984F800803A4640466A
S315000017000BF0BAFF414607AA02200BF0A9FD0528F7
S3150000171001460BD1364810F05DFE00F0ADFB42F2FB
S3150000172010780546237893B3324B1968002937D1D0
S31500001730314810F04FFE384611F0D0F8C823B0F506
S31500001740007F0546044628BF4FF40075ADF800300B
S3150000175006902A4B019369463046CDE904750DF093
S315000017606DFC641B64B3DDE90413B4F5007F254604
S3150000177028BF4FF4007519442A4630460491641B6D
S315000017800DF088FD0595EDE700F0EEFBCAE700F0E9
S3150000179073FB431B4345F7D92378002BC4D107219C
S315000017A0174810F0AFFD4FF4FA73ADF80030154B43
S315000017B00493694619233046CDE905330DF03EFC06
S315000017C038460FF02FFF002015B0BDE8F0836946BC
S315000017D030460DF033FCF6E720842108488F2108B7
S315000017E0A3582108922C00002F5A2108852520088D
S315000017F0435A210820280000BD5A210832592108E1
S31500001800505A2108A35A21082DE9F041F8B0942234
S3150000181000210CA810F03CFF1122002102A810F0B4
S3150000182037FF1422002107A810F032FFA048A14D6F
S31500001830A14E10F0CFFD2B78042B61D8DFE813F012
S315000018400500AD016900AD01A60100239B491A46BA
S3150000185010200CF0A7FB044630B10146984810F062
S3150000186051FD78B0BDE8F0810246964908200BF09C
S3150000187003FF954922460A200BF0FEFE934810F01E
S31500001880A9FD214610200CF0E3FC014608B1904862
S31500001890E5E7904810F09EFD5023ADF81C308E4BC6
S315000018A00A938E4B089307A905238D48ADF824307B
S315000018B00DF0A8FA014608B18A48D0E788480DF02D
S315000018C0F3FA044610B101468748C8E7874810F086
S315000018D081FD31AA214610200CF0F0FC31A9844884
S315000018E010F010FD9DF80F3100939DF80D219DF825
S315000018F00E319DF80C117F4810F004FD01232B706A
S315000019007D4B1B78002B96D04FF0FF3000F05DFB2F
S31500001910FAE773480DF0F0FA014608B177489EE7FA
S315000019206F480DF0ABFA014608B1754897E7754860
S3150000193010F050FD10200CF075FC044610B1014665
S3150000194071488CE7714810F045FD714923462246DF
S3150000195008200CF027FB074610B101466D487EE7CC
S315000019606D486E4C10F036FD4FF48E72394631A834
S3150000197010F08EFE6A4810F0B1FF6949024632A89F
S3150000198010F09EFF664810F0A9FF01210346644A45
S3150000199008460CF0C3FC40223946204610F078FE7B
S315000019A0604810F09BFF5F4984F8200002462046FD
S315000019B010F086FF5C495D4810F01DFFE0B15C4900
S315000019C05A4810F018FF48B35A49584810F013FF08
S315000019D030B35949554810F00EFF18B357495348CC
S315000019E010F009FF00B35649504810F004FF0028D4
S315000019F04FF6FF7008BF0620E085524A04274FF0D5
S31500001A0001080021082084F83070C4F834800CF0F6
S31500001A1035FC044650B101464B4820E70120EBE770
S31500001A200220E9E70720E7E70820E5E7474810F046
S31500001A30D1FC3A49464810F065FC224645494046E5
S31500001A400BF01AFE354946F2A81205200BF0B6FC3B
S31500001A500446E0B10146404810F054FC3F4B9C421E
S31500001A600BD13F4A137833B1013B137041F28830F2
S31500001A7000F0ABFA44E70523137008200CF0D2FB04
S31500001A80014610B1374810F03DFC002337E7014608
S31500001A900CAA08200CF012FC014608B12E48DEE61E
S31500001AA01CA808F011FA014600285FD02E48D6E699
S31500001AB0CF5A21081C2800003C5E2108A883210873
S31500001AC0F25A2108612520083D2520081E5B2108C1
S31500001AD0345B2108635B210899222008E45E210813
S31500001AE024280000755B2108935B2108AB5B210865
S31500001AF0CD5B2108FF5B2108912C0000445C210886
S31500001B005B5C2108745C21088F5C2108A35C2108BA
S31500001B10E4832108BB5C2108EB5C2108DC2700007C
S31500001B207C270000BC2700000F5D21085C27000011
S31500001B30145D2108185D21081D5D2108225D21081C
S31500001B40325D21080C5F21083D5D2108635D210897
S31500001B50885D21080D222008925D210803000100FE
S31500001B60902C0000C55D2108DA5D21080C4810F0B4
S31500001B7031FC1E9B0B48029310F0C4FB02A802F036
S31500001B804DF8094810F026FC2F70B9E6304610F0E3
S31500001B9021FC064B01221A70B2E64FF47A7067E711
S31500001BA0095E21082E5E2108415A2108912C000069
S31500001BB0024A0348002100F06BB900BFA05F21086C
S31500001BC00928200808B500F09DF8FFF7F1FF00F09E
S31500001BD0EDF800B908BD00F094F8F8E770477047D3
S31500001BE07047704708B502F059FD05F069FF07F028
S31500001BF025FA01F0E5FFBDE8084002F023BB704777
S31500001C0000F01EB97047704770477047EFF31080B9
S31500001C1072B6704710B962B6BFF36F8F7047EFF3B5
S31500001C2011800C2383F31188704780F31188BFF36A
S31500001C306F8F7047034638B10020814204D01A5C8A
S31500001C4002B970470130F8E770474FF0FF31FFF7F0
S31500001C50F1BF000040B1054A1378012B04D8037088
S31500001C60013313700020704701207047932C000049
S31500001C7008B512F0C9FD002008BD70B5B0B1ABB112
S31500001C804C4204F00304214489B2C0E900330181C7
S31500001C9042811C460025501EA842264607DC002A23
S31500001CA008BF002048434FF0FF321A5070BD0C4465
S31500001CB034600135F0E738B5044630B1FFF7AFFFC1
S31500001CC025686B1C04D1FFF7B0FF0025284638BDF8
S31500001CD02B682360FFF7A9FFF8E738B504460D46E1
S31500001CE0FFF79DFF23682B602560BDE83840FFF7AE
S31500001CF09CBF08B500F013F800F056F8FEE77047F1
S31500001D007047704708B5FFF76DFFFFF77BFFFFF7DA
S31500001D107AFFFFF779FFBDE80840FFF776BF08B501
S31500001D20FFF7EDFF02F022F9FFF7EAFF00F062F895
S31500001D3000F007F8FFF763FFBDE8084000F01AB8A7
S31500001D40704708B5FFF74AFFFFF749FFFFF748FF5F
S31500001D50FFF747FFFFF7F4FF08BD000008B5FFF7E0
S31500001D6031FF034B1868BDE8084000F014B900BF06
S31500001D70942C000030B5094D0FCD8BB001AC0FC4CB
S31500001D800FCD0FC42B680648236001AA002100F07E
S31500001D907FF8044B18600BB030BD00BF44842108A7
S31500001DA05D2D2008942C0000FFF72ABF0020704705
S31500001DB010B5EFF3058414B10124204610BD12F0CE
S31500001DC037FD0128F9D0EFF31083002BF4D1EFF3A0
S31500001DD01184003C18BF0124EFE708B54FF0E0235B
S31500001DE01B6912F025FD012803D0BDE8084001F06B
S31500001DF07DBC08BD08B5FFF7DBFF48B912F018FD3A
S31500001E000128034607D1054A106820B9136008BDAA
S31500001E106FF00500FBE74FF0FF30F8E78839000068
S31500001E2008B512F005FD38B1022804D0034B186836
S31500001E30431E5842584108BD0320FCE7883900007C
S31500001E4010B5FFF7B5FF044668B912F0F1FC01289A
S31500001E500CD1084B1A68012A08D102221A6012F026
S31500001E60CBFC204610BD6FF00500FBE74FF0FF30BE
S31500001E70F8E700BF8839000008B5FFF799FF18B1E9
S31500001E80BDE8084012F0B0BCBDE8084012F0E4BC62
S31500001E902DE9F04186B0002305460E46904605938F
S31500001EA0FFF786FF00BBFDB1B8F1000F3ED0D8F8B2
S31500001EB018402CB1631E372B03D906B0BDE8F0815C
S31500001EC01824D8F80430DB0735D4D8F814306BB1B1
S31500001ED09A08D8E90270D8F8001057B1772803D9C4
S31500001EE0D8F8100000B1BBB90598E6E74FF4807248
S31500001EF0EFE70028F8D1D8F81030002BF4D105AB65
S31500001F00013C019300943346284612F03DFC01281B
S31500001F101CBF00230593E7E7013CCDE901070094C8
S31500001F203346284612F064FC0590DDE74146182446
S31500001F304FF48072E3E70020BFE712F041BC0000D7
S31500001F4010B50446FFF734FF10B14FF0FF3010BD57
S31500001F50002CFAD0204612F06FFC0328F5D8014B6E
S31500001F601856F4E76884210808B5FFF721FF50B931
S31500001F704FF0E0234FF08052C3F8042DBFF34F8F8C
S31500001F80BFF36F8F08BD6FF00500FBE708B50020B3
S31500001F9012F002FCFEE738B50546FFF709FF0446D6
S31500001FA050B965B1284612F047FC04280AD02846E5
S31500001FB012F0F2FB204638BD6FF00500FBE76FF02C
S31500001FC00300F8E76FF00200F5E710B50446FFF7E7
S31500001FD0EFFE28B914B1204612F036FC002010BDE1
S31500001FE06FF00500FBE710B50446FFF7E1FE50B9B8
S31500001FF05CB1D4E9020328B11F2B04D9BDE8104017
S3150000200000F022BA0BB1002010BDBDE8104000F070
S315000020103FBA37B50C46054630B3B1F1807F23D2BF
S31500002020FFF7C6FEC8B1002301AA21462846019340
S3150000203000F084FBD8B1284600F0FEFA019B4BB1B4
S315000020404FF0E0234FF08052C3F8042DBFF34F8FBB
S31500002050BFF36F8F204303B030BD2146284603B03F
S31500002060BDE8304000F0F6BA6FF00300F3E76FF01A
S315000020700200F0E770B50E46054600B3B1F1807F69
S315000020801DD2FFF795FEA0B1284600F0D5FA3146DD
S315000020900446284600F0C8FAA0B14FF0E0234FF0FE
S315000020A08052C3F8042DBFF34F8FBFF36F8F2046C6
S315000020B070BD31462846BDE8704000F08FBA6FF01B
S315000020C00304F4E76FF00204F1E72DE9F3410C464F
S315000020D015461E46074610B1B1F1807F04D36FF056
S315000020E0030002B0BDE8F081FFF762FE20B1002ECA
S315000020F0F5D16FF00500F4E705F0010885F002025E
S31500002100C2F34002009643462146384600F0CEF917
S3150000211004EA0002B8F1000F08D0A242E1D0002E76
S3150000212014BF6FF001006FF00200DAE7002AF6D064
S31500002130D7E738B50546FFF73BFE044628B93DB15B
S31500002140284600F0CDFA204638BD6FF00500FBE7C3
S315000021506FF00300F8E738B50546FFF729FE10B122
S315000021600024204638BD25B9BDE83840012000F0DE
S3150000217066BD6B681A07F3D4D5E9021203F00103B2
S3150000218079B14F2AECD99BB1042000F024FD044616
S315000021900028E5D0296809B100F0A0FF44F0010449
S315000021A0DFE7002ADCD17BB1042000F048FDEEE732
S315000021B0012000F010FD04460028D1D0296800292E
S315000021C0CFD000F08BFFCCE7012000F038FDF2E71E
S315000021D0F8B505460C4620F0010600F00107FFF7AA
S315000021E0E7FDA0B9012D15D92146304667B100F0AB
S315000021F0F7FE012801D10020F8BD002C14BF6FF0B6
S3150000220001006FF00200F7E700F036FEF1E76FF02D
S315000022100500F1E76FF00300EEE770B5044620F025
S31500002220010500F00106FFF7C3FD90B9012C13D993
S3150000223046B1284600F0E4FC01280CBF00206FF0F0
S31500002240020070BD334632463146284600F007FC90
S31500002250F2E76FF00500F4E76FF00300F1E770B501
S31500002260054620F00106FFF7A3FD044648B9012DF7
S315000022700AD9304600F05AFF304600F079FF204672
S3150000228070BD6FF00500FBE76FF00300F8E738B5A7
S315000022900546FFF78DFD044640B955B1284600F0C6
S315000022A045FF284600F064FF204638BD6FF0050064
S315000022B0FBE76FF00300F8E7F7B505460E46144650
S315000022C0FFF776FD18B10025284603B0F0BD002DB6
S315000022D0F9D0002EF7D03CB3D4E90232BBB14F2A75
S315000022E0F1D92269002AEED0676906FB05F18F4213
S315000022F0E9D300903146284600F040FB0546002809
S31500002300E1D021680029DFD000F0E8FEDCE7002AF2
S31500002310D9D12369002BD6D16269002AD3D131469F
S31500002320284600F06CFBE9E722463146284603B012
S31500002330BDE8F04000F063BB73B51C4605460E468B
S31500002340FFF736FD0346F0B15DB356B34CBB2346EB
S3150000235001AA31462846019400F083FC012803D0E7
S315000023606FF0020002B070BD019B0BB90020F9E7C7
S315000023704FF0E0234FF08052C3F8042DBFF34F8F88
S31500002380BFF36F8FF2E765B15EB12246314628464C
S3150000239000F065FB0128E9D0002CE1D06FF00100C8
S315000023A0E0E76FF00300DDE773B505460E461C4611
S315000023B0FFF7FEFCE8B155B34EB344BB01AA314664
S315000023C02846019400F02DFE012803D06FF002008C
S315000023D002B070BD019B0BB90020F9E74FF0E02376
S315000023E04FF08052C3F8042DBFF34F8FBFF36F8FAA
S315000023F0F2E765B15EB122463146284600F09DFC03
S315000024000128E9D0002CE1D06FF00100E0E76FF081
S315000024100300DDE7FFF73BBF034B0360034B0B6095
S315000024204FF48073136070471039000010350000B8
S31500002430034B0360034B0B604FF40073136070474C
S3150000244098340000982C000013B5044640B94FF0AC
S31500002450140383F31188BFF36F8FBFF34F8FFEE72B
S3150000246020230193019B202B08D04FF0140383F304
S315000024701188BFF36F8FBFF34F8FFEE7002340F83D
S31500002480043B00F063F901232046237702B010BD18
S3150000249038B5202001F03CFA044628B1002540F862
S315000024A0045B00F053F92577204638BD2DE9F84343
S315000024B0DDF820900C4617469846064640B94FF080
S315000024C0140383F31188BFF36F8FBFF34F8FFEE7BB
S315000024D0B1F1807F08D34FF0140383F31188BFF363
S315000024E06F8FBFF34F8FFEE741B94FF0140383F3AD
S315000024F01188BFF36F8FBFF34F8FFEE712F098F985
S31500002500D0B9B9F1000F08D04FF0140383F3118846
S31500002510BFF36F8FBFF34F8FFEE712F099F935685F
S3150000252004EA0503B8F1000F32D09C4232D18FB3D2
S3150000253025EA040434602DE012F08AF9356804EACD
S315000025400503B8F1000F2AD1002BF0D1B9F1000F25
S3150000255020D0391E18BF012109064A462143301DE5
S3150000256012F03AF912F020F928B312F021F983019A
S3150000257005460AD401F086F8356804EA0503B8F181
S31500002580000F23D123BB01F09DF825F07F4503E022
S31500002590002BCCD112F008F92846BDE8F8839C42FE
S315000025A0C5D0B9F1000FF5D0391E18BF01210906B3
S315000025B041F08061D1E74FF0E0234FF08052C3F83D
S315000025C0042DBFF34F8FBFF36F8FCEE79C42DAD156
S315000025D0002FD8D025EA04043460D4E770B50C4641
S315000025E0054640B94FF0140383F31188BFF36F8F8C
S315000025F0BFF34F8FFEE7B1F1807F08D34FF014038E
S3150000260083F31188BFF36F8FBFF34F8FFEE701F09F
S3150000261039F82E6826EA04042C6001F053F8304697
S3150000262070BDFFF7DBBF00000A46002301460148E4
S3150000263000F074BF23362008EFF311834FF0140225
S3150000264082F31188BFF36F8FBFF34F8F006883F358
S31500002650118870472DE9F0410D46044640B94FF008
S31500002660140383F31188BFF36F8FBFF34F8FFEE719
S31500002670B1F1807F08D34FF0140383F31188BFF3C1
S315000026806F8FBFF34F8FFEE700F10C0612F0E0F8F4
S31500002690236820692B43236000258642216807D1E1
S315000026A021EA0501216012F07FF82068BDE8F0817B
S315000026B0D0E9002822F07F4312F0806F03EA010779
S315000026C002D11FB94046E8E7BB42FBD1D20141F037
S315000026D0007148BF1D4312F093F8F3E7FFF7BABF46
S315000026E038B5044640B94FF0140383F31188BFF39D
S315000026F06F8FBFF34F8FFEE712F0AAF804F10C05B7
S31500002700636843B912F050F8237FABB92046BDE8A1
S31500002710384001F0D3B92069A84208D14FF014031C
S3150000272083F31188BFF36F8FBFF34F8FFEE74FF030
S31500002730007112F065F8E3E738BD000013460A465B
S315000027400146014800F0EABEDD36200800F1080324
S315000027504FF0FF32C0E902234360036100230360A8
S31500002760704700230361704743684B609A688A602C
S31500002770516099600368086101330360704730B5A2
S315000027800C68631C0AD103695A684A6091608B60C1
S315000027905960036808610133036030BD00F1080227
S315000027A0134652681568A542FAD9EDE7D0E9011239
S315000027B003698A6051605968814208BF5A600022E5
S315000027C00261186801381860704710B5044600F0B9
S315000027D059FFA46B00F076FFB4FA84F0400910BDEF
S315000027E070B51646026C856B044642B906689EB9FA
S315000027F0806811F0E9FFA6600135A56370BD6EB96A
S31500002800406810F05DF86368226C1344A268636048
S31500002810934224BF236863600020EDE7C06810F090
S315000028204FF8226CE36851429B1A2268E360934298
S315000028303EBFA3685B18E360022EEDD10DB1013DEA
S31500002840EAE72846D8E7034610B41A6C08466AB188
S31500002850DC68996814448C4228BF1968DC6028BF7C
S31500002860D960D9685DF8044B10F02AB85DF8044BBE
S31500002870704770B5044600F005FF94F8455004F122
S3150000288024066DB2002D14DCFF2384F8453000F0D9
S3150000289019FF00F0F7FE94F8445004F110066DB2EB
S315000028A0002D12DCFF2384F84430BDE8704000F0B0
S315000028B009BF636A002BE7D0304611F0ADFF08B1BF
S315000028C011F0CEFF013D6DB2DCE72369002BE9D0A4
S315000028D0304611F0A1FF08B111F0C2FF013D6DB203
S315000028E0DEE770B50E46044640B94FF0140383F395
S315000028F01188BFF36F8FBFF34F8FFEE7C56BA5B38C
S31500002900036CA3FB053585BB00F0BCFED4E90F3193
S31500002910226862604B43D0185B1A1A44FF23A563F2
S31500002920A06084F84430E26084F84530A6B9236993
S3150000293073B104F1100011F06FFF48B14FF0E023BE
S315000029404FF08052C3F8042DBFF34F8FBFF36F8F44
S3150000295000F0B8FE012070BD04F11000FFF7F6FE8E
S3150000296004F12400FFF7F2FEF2E74FF0140383F3BD
S315000029701188BFF36F8FBFF34F8FFEE737B50D4654
S315000029801C4643B94FF0140383F31188BFF36F8FCE
S31500002990BFF34F8FFEE748B3B2B139B3502301936B
S315000029A0019B502B19D1019B22600121C4E90F051F
S315000029B084F846102046FFF794FF9DF8183084F8F7
S315000029C04C30204603B030BD81B950230193019BA2
S315000029D0502B02D1019B2246E6E74FF0140383F306
S315000029E01188BFF36F8FBFF34F8FFEE74FF01403CD
S315000029F083F31188BFF36F8FBFF34F8FFEE72DE987
S31500002A00F0410D461746064600B3A1FB0038B8F163
S31500002A10000F1BD1484310F1510F17D8503000F06A
S31500002A2077FF044668B180F846806DB100F1500327
S31500002A30C4E90F65236001212046FFF752FF84F8A1
S31500002A404C702046BDE8F0810346F1E74FF01403D1
S31500002A5083F31188BFF36F8FBFF34F8FFEE7F0B597
S31500002A6085B00E4601921D46044640B94FF0140348
S31500002A7083F31188BFF36F8FBFF34F8FFEE751B912
S31500002A80036C43B14FF0140383F31188BFF36F8FC8
S31500002A90BFF34F8FFEE7022D0BD1E36B012B08D05E
S31500002AA04FF0140383F31188BFF36F8FBFF34F8F7B
S31500002AB0FEE711F0BDFE08B9019B03BB00F0E2FD85
S31500002AC0A26BE36B9A4223D22A4631462046FFF791
S31500002AD087FE636A1BB104F1240011F09DFE48B124
S31500002AE04FF0E0234FF08052C3F8042DBFF34F8F11
S31500002AF0BFF36F8F00F0E6FD012005B0F0BD4FF08B
S31500002B00140383F31188BFF36F8FBFF34F8FFEE774
S31500002B10022DD9D000231F4637E013B902A811F0C1
S31500002B2057FE00F0CFFD11F093FE00F0ABFD94F8D8
S31500002B304430FF2B08BF84F8447094F84530FF2BCF
S31500002B4008BF84F8457000F0BDFD01A902A811F088
S31500002B501FFE002839D100F095FDA26BE36B9A4267
S31500002B601AD100F0AFFD019904F1100011F050FEEA
S31500002B702046FFF77EFE11F017FED8B100F082FD69
S31500002B80A36BE26B9A429FD80123019A002AC4D113
S31500002B9000F098FD0020B0E700F094FD2046FFF716
S31500002BA068FE11F001FE00F06DFDA26BE36B9A4228
S31500002BB0EAD289E74FF0E0234FF08052C3F8042DA4
S31500002BC0BFF34F8FBFF36F8FEDE72046FFF751FE40
S31500002BD011F0EAFDDEE713B500220B460090114620
S31500002BE00120FFF7CBFE044638B100238360036063
S31500002BF0C3601A461946FFF732FF204602B010BDE1
S31500002C0038B5044640B94FF0140383F31188BFF377
S31500002C106F8FBFF34F8FFEE7856811F0D1FD8542B8
S31500002C200BD1E368013BE3600BB1012038BD1A46C6
S31500002C3019462046FFF713FFF7E70020F6E710B521
S31500002C40024600210120FFF7DAFE044638B10023D0
S31500002C5083600360C3601A461946FFF700FF2046EB
S31500002C6010BD2DE9F843894617461E46044640B96D
S31500002C704FF0140383F31188BFF36F8FBFF34F8FA9
S31500002C80FEE751B9036C43B14FF0140383F3118887
S31500002C90BFF36F8FBFF34F8FFEE7022E0BD1E36BAF
S31500002CA0012B08D04FF0140383F31188BFF36F8F05
S31500002CB0BFF34F8FFEE700F0FDFDEFF311884FF0F5
S31500002CC0140383F31188BFF36F8FBFF34F8FA26B8B
S31500002CD0E36B9A4201D3022E2DD194F84550A36B93
S31500002CE06DB2324649462046FFF77AFD6B1C0ED17F
S31500002CF0636A3BB104F1240011F08EFD10B10FB1EF
S31500002D0001233B60012088F31188BDE8F88311F0A8
S31500002D1053FD8542F6D27F2D08D14FF0140383F37D
S31500002D201188BFF36F8FBFF34F8FFEE701356DB28A
S31500002D3084F84550E6E70020E5E7F0B585B00E4695
S31500002D400192044640B94FF0140383F31188BFF390
S31500002D506F8FBFF34F8FFEE751B9036C43B14FF04E
S31500002D60140383F31188BFF36F8FBFF34F8FFEE712
S31500002D7011F05EFD50B9019B43B14FF0140383F38C
S31500002D801188BFF36F8FBFF34F8FFEE700F07AFC19
S31500002D90A56BDDB131462046FFF755FD2369013DA0
S31500002DA0A56373B104F1100011F036FD48B14FF080
S31500002DB0E0234FF08052C3F8042DBFF34F8FBFF3CB
S31500002DC06F8F00F07FFC012005B0F0BD019B1BB9A1
S31500002DD000F078FC0020F7E702A811F0F9FC2F4676
S31500002DE000F070FC11F034FD00F04CFC94F8443017
S31500002DF0FF2B08BF84F8447094F84530FF2B08BFBA
S31500002E0084F8457000F05EFC01A902A811F0C0FC30
S31500002E1038BB2046FFF7D9FCE8B1019904F124003C
S31500002E2011F0F6FC2046FFF724FD11F0BDFC48B971
S31500002E304FF0E0234FF08052C3F8042DBFF34F8FBD
S31500002E40BFF36F8F00F01EFCA56B002DA2D1019B76
S31500002E50002BC5D1BCE72046FFF70BFD11F0A4FC03
S31500002E60F0E72046FFF705FD11F09EFC2046FFF730
S31500002E70ACFC0028E6D0ADE7F0B585B0044601917C
S31500002E8040B94FF0140383F31188BFF36F8FBFF37C
S31500002E904F8FFEE7056C45B14FF0140383F311889D
S31500002EA0BFF36F8FBFF34F8FFEE711F0C1FC0646ED
S31500002EB020B32E46002700F0E5FBA36B53B3013B7E
S31500002EC0A363236813B911F0AFFCA060236973B143
S31500002ED004F1100011F0A0FC48B14FF0E0234FF0D0
S31500002EE08052C3F8042DBFF34F8FBFF36F8F00F0EE
S31500002EF0E9FB012005B0F0BD3546DBE7019B002B61
S31500002F00FAD04FF0140383F31188BFF36F8FBFF32A
S31500002F104F8FFEE7019B1BB900F0D4FB0020E9E7C9
S31500002F2016B902A811F054FC00F0CCFB11F090FC8D
S31500002F3000F0A8FB94F84430FF2B08BF84F84470D7
S31500002F4094F84530FF2B08BF84F8457000F0BAFBB3
S31500002F5001A902A811F01CFC50BB2046FFF735FC66
S31500002F6000B323683BB900F08DFBA06811F068FC44
S31500002F70054600F0A7FB019904F1240011F048FC76
S31500002F802046FFF776FC11F00FFC48B94FF0E0231E
S31500002F904FF08052C3F8042DBFF34F8FBFF36F8FEE
S31500002FA0012688E72046FFF764FC11F0FDFBF7E7F2
S31500002FB02046FFF75EFC11F0F7FB2046FFF705FC05
S31500002FC00028EDD0002DA9D000F05CFB616A19B194
S31500002FD0236B1968C1F13801A06811F0E1FB9BE78A
S31500002FE070B50D46044640B94FF0140383F31188BB
S31500002FF0BFF36F8FBFF34F8FFEE7866811F0E0FBDC
S31500003000864204D1E3680133E360012070BD29469E
S315000030102046FFF731FF0028F8D0E3680133E3606C
S31500003020F4E72DE9F84389469046044640B94FF047
S31500003030140383F31188BFF36F8FBFF34F8FFEE73F
S3150000304051B9036C43B14FF0140383F31188BFF3F6
S315000030506F8FBFF34F8FFEE700F02CFCEFF3118765
S315000030604FF0140383F31188BFF36F8FBFF34F8FB5
S31500003070A66B86B394F8445049466DB22046FFF7D6
S31500003080E2FB013E6B1CA66311D1236953B104F127
S31500003090100011F0C1FB28B1B8F1000F02D00123D6
S315000030A0C8F80030012087F31188BDE8F88311F0D5
S315000030B083FB8542F6D27F2D08D14FF0140383F3AC
S315000030C01188BFF36F8FBFF34F8FFEE701356DB2E7
S315000030D084F84450E6E73046E5E7000070B540B9AD
S315000030E04FF0140383F31188BFF36F8FBFF34F8F35
S315000030F0FEE7B9B10C4A00231C46154656688642BF
S3150000310004D105EBC403C3E900100BE01BB9166834
S31500003110002E08BF13460134082C02F10802EDD137
S31500003120002BF0D170BD00BF8C39000010B540B93E
S315000031304FF0140383F31188BFF36F8FBFF34F8FE4
S31500003140FEE7094A002352F8331081424FEAC304CE
S3150000315006D1064A002142F833102244516010BDC0
S315000031600133082BEFD1FAE7903900008C390000C3
S3150000317010B540B94FF0140383F31188BFF36F8F76
S31500003180BFF34F8FFEE7FFF7D1FF90F846301BB92C
S31500003190BDE8104000F092BC10BD70B504460D4667
S315000031A0164600F06FFA94F84430FF2B04BF002354
S315000031B084F8443094F84530FF2B04BF002384F88C
S315000031C0453000F07FFAA36B2BB93246294604F14D
S315000031D0240011F0D5FA2046BDE87040FFF749BB40
S315000031E0914208B5416000610AD8D21A83699A42B1
S315000031F00DD2084B011D1868FFF7C1FA002008BD63
S315000032009A4201D2994202D2034B011DF3E70120F3
S31500003210F5E700BF7C3F0000803F000070B5044624
S315000032200D461646A1692B46324629442046FFF72D
S31500003230D7FF00B970BDA36920461D44236A98478D
S31500003240F0E700000E4B1B68DB6870B5DC680546CE
S31500003250201D0E46FFF7AAFA94F828305A0709D51A
S31500003260324629462046FFF7D9FF236A2046BDE8A5
S315000032707040184723F0010384F82830F5E700BFB3
S31500003280803F0000F8B50F4E054611F0E5FA3368A9
S315000032908342044609D90C4F3B681A6852B90B4A57
S315000032A0116839601360012300E000232B6034604D
S315000032B02046F8BDDB684FF0FF311868FFF7C2FF04
S315000032C0EAE700BF703F0000803F00007C3F00003F
S315000032D02DE9F0415B4F5C4E86B03B68D3F8008029
S315000032E0B8F1000F38D0DB68D3F80080002411F065
S315000032F0AFFA02A8FFF7C6FF029B0546002B48D18E
S3150000330064BB404530D311F04FFA29464046FFF7DB
S3150000331099FF1022002102A80FF0BAF930680022A6
S3150000332002A9FFF70AFD0028D7D0029B0498002BBC
S3150000333032DB049C6369002B35D101A8FFF7A2FF9D
S31500003340029B013B0546082BE8D8DFE803F0303046
S31500003350535A733030535A000124C8E73B4B1B685D
S315000033601C68B4FA84F4640930682246A8EB0501A7
S31500003370FFF713FF11F018FA0028CAD14FF0E02327
S315000033804FF08052C3F8042DBFF34F8FBFF36F8FFA
S31500003390BFE711F009FABCE7039B05999847029B22
S315000033A0002BBBDBC5E7201DFFF700FAC5E794F845
S315000033B02830A16943F0010384F82830039B0246B4
S315000033C019442046FFF70CFF0028A7D094F82830B0
S315000033D059070AD5A36903992A4619442046FFF7D7
S315000033E01DFF236A2046984798E723F0010384F8D7
S315000033F02830F6E794F8283023F0010384F82830C3
S315000034008CE794F8283043F0010384F828300399B8
S31500003410A16141B94FF0140383F31188BFF36F8F95
S31500003420BFF34F8FFEE70346024601442046FFF7EF
S31500003430D7FE73E794F828309A07DDD4204600F0CB
S315000034403DFB6BE7803F0000783F00007C3F0000BB
S31500003450F7B5114C00F016F92568BDB90F4F104E9F
S315000034603846FFF773F93046FFF770F90D4B0E4AF1
S315000034701F600E4B10211E6005200D4B0095FFF7B7
S315000034807DFA206010B10B49FFF728FE03B0BDE8B6
S31500003490F04000F017B900BF783F0000983F0000E9
S315000034A0843F0000803F0000203F00007C3F00007A
S315000034B0D03E00007184210810B588B0FFF7C8FF20
S315000034C0124B1B68B3B1002407AA06A905A8CDE9CB
S315000034D00544FEF7ADFF059B0293069B0193372338
S315000034E00093079A0A490B48234611F081F90A4BC3
S315000034F0186040B94FF0140383F31188BFF36F8F40
S31500003500BFF34F8FFEE7012008B010BD783F0000E3
S3150000351076842108D1422008743F00001FB5144666
S315000035201A466FF00103CDE900300548CDE90214D3
S31500003530002369460068FFF794FB04B010BD00BF86
S31500003540783F0000000000000000000000000000BE
S31500003550074B19680868B0E8F04F80F30988BFF395
S315000035606F8F4FF0000080F311887047AFF3008033
S31500003570CC3E000008480068006880F308884FF0D9
S31500003580000080F3148862B661B6BFF34F8FBFF3B5
S315000035906F8F00DF00BF000008ED00E000000000B4
S315000035A0EFF30980BFF36F8F154B1A681EF0100FEB
S315000035B008BF20ED108A20E9F04F10602DE90900C0
S315000035C04FF0140080F31188BFF34F8FBFF36F8F56
S315000035D011F006F94FF0000080F3118809BC196854
S315000035E00868B0E8F04F1EF0100F08BFB0EC108A64
S315000035F080F30988BFF36F8F704700BFAFF3008079
S31500003600CC3E0000DFF80C00016841F47001016057
S315000036107047000088ED00E082B0002301930D4B57
S315000036201B68013308D04FF0140383F31188BFF3EE
S315000036306F8FBFF34F8FFEE74FF0140383F31188AC
S31500003640BFF36F8FBFF34F8F019B002BFCD002B0EF
S31500003650704700BF300A00004FF0807340F8043C0A
S31500003660074B40F80C3C21F001016FF0020340F8D3
S31500003670081C40F8202C40F8243C4438704700BF12
S31500003680194620084FF0140383F31188BFF36F8F98
S31500003690BFF34F8F0A4A13680133012B13600ED113
S315000036A04FF0E023D3F8043DDBB243B14FF01403EF
S315000036B083F31188BFF36F8FBFF34F8FFEE7704719
S315000036C0300A0000084A136843B94FF0140383F325
S315000036D01188BFF36F8FBFF34F8FFEE7013B136077
S315000036E00BB983F311887047300A000008B54FF014
S315000036F0140383F31188BFF36F8FBFF34F8F11F05D
S315000037008FF828B14FF0E0234FF08052C3F8042D14
S31500003710002383F3118808BD4FF0E02200231361D4
S315000037209361054B4FF47A711B68B3FBF1F3013BD0
S315000037305361072313617047300801004FF0E023FF
S3150000374037B5D3F8001D534A914208D14FF0140300
S3150000375083F31188BFF36F8FBFF34F8FFEE7D3F864
S31500003760001D4D4A914208D14FF0140383F311888E
S31500003770BFF36F8FBFF34F8FFEE7D3F8083D474A7D
S31500003780D96A914208D04FF0140383F31188BFF32E
S315000037906F8FBFF34F8FFEE79A6B414B9A4208D06B
S315000037A04FF0140383F31188BFF36F8FBFF34F8F6E
S315000037B0FEE7002301933B4B1A78D2B28DF8022024
S315000037C0FF221A701B78384ADBB28DF803309DF859
S315000037D0033003F01403137043B94FF0140383F35B
S315000037E01188BFF36F8FBFF34F8FFEE79DF803304D
S315000037F0DB4313F0140F10D04FF0140383F311883A
S31500003800BFF36F8FBFF34F8FFEE7013301939DF830
S3150000381003305B00DBB28DF803309DF8033013F004
S31500003820800F019BF1D1082B18BF019B1F4A14BFC3
S31500003830C3F1070300231B0203F4E06313609DF842
S315000038400230184A4FF0E024DBB21370D4F8203D62
S3150000385043F47F03C4F8203DD4F8203D002543F00F
S315000038607F43C4F8203DC4F81C5DFFF755FF104B9D
S315000038701D60FFF7C7FED4F8343F43F04043C4F859
S31500003880343FFFF777FE10F0ABFFFFF7C5FE284683
S3150000389003B030BD71C20F4170C20F4151452008BF
S315000038A0A145200800E400E0B03F0000AC3F000066
S315000038B0300A0000EFF305830F2B0ED9114A9B5CEB
S315000038C0114A12789A4208D94FF0140383F31188EB
S315000038D0BFF36F8FBFF34F8FFEE74FF0E0230B4A26
S315000038E0D3F80C3D126803F4E063934208D94FF015
S315000038F0140383F31188BFF36F8FBFF34F8FFEE777
S31500003900704700BFF0E300E0B03F0000AC3F0000AE
S31500003910F8B5431E0A33624D24D910F099FF2B687F
S3150000392063BB00245F4A604853071FBFD11D21F0C7
S31500003930070102F54842531A0CBF4FF448430A46A2
S315000039401344083B23F00703002141600260C3E9EA
S315000039500011991AC2E900312B60544B1960544B7F
S3150000396019601BE010F0070300F108040BD110F0FA
S315000039706FFF2B68002BD5D0002C11DA10F014FF46
S3150000398000252846F8BDA3F10902A242C5D310308E
S31500003990C41A10F05DFF2B68002BC3D0002CEDDDA0
S315000039A0DFF80CC1DCF80010A142E7D33E4ADFF88D
S315000039B0F4E01368734502D33E4FBB4217D94FF06C
S315000039C0140383F31188BFF36F8FBFF34F8FFEE7A6
S315000039D0764502D3BE421A4608D94FF0140383F344
S315000039E01188BFF36F8FBFF34F8FFEE733465868DA
S315000039F0A04202D21E68002EEAD12D689D42BDD09B
S31500003A0015680835754501D3BD4208D94FF0140332
S31500003A1083F31188BFF36F8FBFF34F8FFEE71F68E5
S31500003A201760A0420FD3001B102819D91E1916F0D3
S31500003A30070F11D04FF0140383F31188BFF36F8F74
S31500003A40BFF34F8FFEE74FF0140383F31188BFF3E4
S31500003A506F8FBFF34F8FFEE770605C601F5116607B
S31500003A6058680A1A1149CCF800200C68A24238BFDF
S31500003A700A6000221A60104A40F00040586013683D
S31500003A800133136010F090FE6B073FF47AAF4FF0EE
S31500003A90140383F31188BFF36F8FBFF34F8FFEE7D5
S31500003AA0C43F0000D03F0000C83F0000BC3F0000FC
S31500003AB0C03F0000CF070100B83F0000F8B505463B
S31500003AC000286FD0384FA0F10804BC4212D3374EFD
S31500003AD0B4420FD850F8043C002B14DA50F8082CE6
S31500003AE0D2B14FF0140383F31188BFF36F8FBFF386
S31500003AF04F8FFEE74FF0140383F31188BFF36F8FE8
S31500003B00BFF34F8FFEE74FF0140383F31188BFF323
S31500003B106F8FBFF34F8FFEE723F0004340F8043C5E
S31500003B2010F096FE224A55F8041C13680B441360E5
S31500003B30204B18461A461B689C42FBD882420CD082
S31500003B40BA4201D3B24208D94FF0140383F3118865
S31500003B50BFF36F8FBFF34F8FFEE750681618B4425E
S31500003B6006D1014450188342516010D1144602E038
S31500003B706018834213D11048006883421FBF5868FB
S31500003B804018606018682060A24218BF14600B4A93
S31500003B90136801331360BDE8F84010F005BE45F820
S31500003BA0083CF1E7F8BD00BFD03F0000CF07010099
S31500003BB0C03F0000C83F0000C43F0000B43F000003
S31500003BC070B5134C134D23685E6C002319462846C6
S31500003BD00222B04723681E6800231946022228469F
S31500003BE0B04723680C4DD3F8C030052098472368AA
S31500003BF05E6C0023194628460A22B04723681C68D3
S31500003C0000232846A4460A22BDE8704019466047AC
S31500003C100001300000C004240000134607B5C37835
S31500003C20009383784278017802480EF06BFB03B06C
S31500003C305DF804FB7E8421081FB558B143790293D1
S31500003C4003790193C3780093837842780178034817
S31500003C500EF058FB05B05DF804FB00BF8A8421080E
S31500003C600FB404B07047000030B5114B93F85830CC
S31500003C70013BDBB2FD2B8FB018D80E4D0FCD6C4635
S31500003C800FC40FCD0FC40FCD0FC495E8030084E811
S31500003C900300094C6846D4F8443715F053FA03F08C
S31500003CA097FFD4F8443700200FB030BD0120FBE762
S31500003CB000021F0858021F0800800524134B0168E4
S31500003CC0D3F84437F0B50127013900D2F0BDD0F85A
S31500003CD008C04668CCF38455C5EBDC623468013213
S31500003CE00023013A0CD203FA05F203EA0C03C3F3EC
S31500003CF0150324EA0202AB40134333600830E3E7BE
S31500003D0007FA02FE43EA0E03EBE700BF0080052434
S31500003D1008B51848FFF7D2FF1748FFF7CFFF04F0A2
S31500003D20E1F904F0F3F904F0FDF904F00FFA04F0F8
S31500003D3019FA1248FFF7C2FF1148FFF7BFFF1148F3
S31500003D40FFF7BCFF1048FFF7B9FF1048FFF7B6FFB3
S31500003D500F48FFF7B3FF0F48FFF7B0FF0E48FFF716
S31500003D60ADFF0E48FFF7AAFFBDE808400C48FFF775
S31500003D70A5BF00BFEC260000502600008C220000E4
S31500003D80582300004C2300006C2300002C22000066
S31500003D90202200001422000068220000B022000049
S31500003DA0A422000010B5254CFFF7B2FF94F80406D4
S31500003DB000F00100FFF758FF4FF4C023C4F86C343D
S31500003DC0D4F840311E4843F40023C4F84031D4F8F7
S31500003DD0403143F00103C4F84031D4F8403143F098
S31500003DE00203C4F84031FFF769FF16491648D1F8B7
S31500003DF0103543F00203C1F81035636923F400332C
S31500003E006361636943F480336361D0F84027D0F877
S31500003E107837C2F34342023A23F4F07343EA42137B
S31500003E20C0F87837D1F8943443F40023C1F89434B9
S31500003E30236943F46013236110BD00BF008004248E
S31500003E407824000000A005240080052408B550B1A0
S31500003E500748FFF733FF0748FFF730FF0648BDE87E
S31500003E600840FFF72BBF0548FFF728FF0448F6E791
S31500003E70C0240000682500005C25000034250000F1
S31500003E80E02400000B48D0F800D05DF804EB5DF8A4
S31500003E9004CB5DF804BB5DF804AB5DF8049B5DF8EC
S31500003EA0048B80BC40BC20BC10BC08BC04BC02BC5B
S31500003EB001BC7047DC070100114AD2F8103623F422
S31500003EC08073C2F810360F4B596B41F001015963EC
S31500003ED0596B41F0020159630423C2F8383482B0A9
S31500003EE000238DF807309DF80730092B01D902B061
S31500003EF0704700BF9DF807300133DBB2F1E700BF22
S31500003F000080042400840424FEE7FEE7054B064AED
S31500003F1006498B4200D3704752F8040B43F8040B52
S31500003F20F7E700BF1000000060A32108402700004B
S31500003F30064B0748DA1C121AC11E22F003029942E8
S31500003F4088BF002200210EF0A3BB00BF181D010090
S31500003F504027000008B5FFF7D9FFFFF7E9FF00F09B
S31500003F60BBF8BDE80840FDF7C4BE000038B562B630
S31500003F703A4B3B4A1A603B4B3B4A93F806363B4C5E
S31500003F803B4D03F00F030F2B15BF3A4B4FF0006369
S31500003F90D3F89312D3F837140CBF11601160364A68
S31500003FA00CBFD3F83634D3F89232136003F090FF87
S31500003FB02B4BE36304F0F8FF032004F04DFA03F003
S31500003FC089FF2E4BDB694FF08061D3F880304FF0CC
S31500003FD08C409847EB69022060F30E33EB61284B67
S31500003FE0DA696FF30202DA6103F0EEFF1D4B1A6A1B
S31500003FF0042161F302021A621A6A1207FCD5AB6940
S31500004000022262F38403AB61AB691B04FCD51D4B32
S315000040101D4D5A6E6FF341025A665A6E6FF30002D7
S315000040205A66FFF749FF19490D4B21614FF4FA40D3
S31500004030E16117496062002220624FF40040C4E942
S315000040400033C4E90B15C4E90F33A2606261E36073
S31500004050A06263636164A26138BD00BF30080100DD
S31500004060005A620200800424D8070100E00701001C
S315000040700081042400001F08D4070100000130005D
S315000040800086042400840424002D310100B4C404F5
S315000040900048E8014FF0E02384B0D3F8402F0192A6
S315000040A0D3F8442F02920199094A91420DD10299FF
S315000040B0084A914209D1D3F8882D0392039A42F413
S315000040C070020392039AC3F8882D04B0704700BFAC
S315000040D0210011101100001113B500230093019364
S315000040E02F4BD3F810250092009A00922D4A1168A2
S315000040F021F00F01116011681160D3F89C1421F4AE
S315000041006071C3F89C14D3F8041701910199C3F8A0
S315000041100415D3F8001701910199C3F80015D3F8D7
S31500004120101541F01C01C3F81015D2F8024014F422
S315000041308074FAD11C48436943F480334361436970
S3150000414064F351434361FFF7A5FF184B4FF08072AC
S315000041505A60174BC0F84031164B5A6864F3C302D5
S315000041605A60036A0E4A43F480330362036A43F4D7
S3150000417000330362D2F8943443F40023C2F8943433
S31500004180036943F4601303610B4B1A6842F400227F
S315000041901A601A6842F480221A6002B010BD00BF8D
S315000041A000A00524000005240080042400003041FE
S315000041B003000800008104240084042430B50E4D59
S315000041C02B6885B043B90D4B0FCB6C4684E80F00C6
S315000041D02046FDF7C0FF2860FDF722FE022808D121
S315000041E0286830B14FF0FF3105B0BDE83040FDF72B
S315000041F0EFBF05B030BD00BF84080100A4842108CC
S3150000420008B5FDF70DFE022806D1044B186818B153
S31500004210BDE80840FEF701B808BD00BF84080100EC
S3150000422020F04040012802D0022805D07047034AFA
S315000042301368013313607047014AF9E78C080100DF
S315000042408808010010B5124CE3689847A368114826
S315000042509847236902209847A46A01211520A047A0
S3150000426001211620A0474FF4E1310120A0470A4C56
S31500004270206810B9FDF76FFF2060084B4FF480529D
S31500004280C3F88020BFF34F8FBFF36F8F10BD00BF01
S31500004290B4842108215220089008010000E100E0C2
S315000042A013B5094C00238DF804302360074B012118
S315000042B09B6901A8984723681BB19DF8040002B0CA
S315000042C010BD00F0FBFAF6E788080100B484210867
S315000042D013B5094C8DF8070000232360074B012115
S315000042E05B690DF10700984723680BB102B010BD5A
S315000042F000F0E4FAF8E700BF8C080100B484210856
S3150000430003681B780022202B04D0093B042B01D91B
S31500004310D0B270470368591C01605B780132F2E73E
S315000043200120704708B505F05DF9162303604FF0CC
S31500004330FF3008BD08B505F055F916230360FEE702
S3150000434070B50D461446FDF76BFD022805D10C4BE2
S315000043504FF0FF311868FDF73BFF2E46731BA34253
S3150000436009DBFDF75DFD022803D1054B1868FDF753
S3150000437054FF204670BD16F8010BFFF7A9FFEDE7C5
S31500004380900801004FF0FF3070474FF400534B6028
S315000043900020704701207047002070470FB42DE9B8
S315000043A0F0438BB012AB002453F8046B019304ADB9
S315000043B08DF81040A846FFF773FF0D2805F8010B8E
S315000043C004D00A2802D00134142CF4D19E4B019F4C
S315000043D0E34004F1280213F001030DEB02041ABFB7
S315000043E0002304F8183C04F8173C9DF81030CDE97A
S315000043F00268002B00F04E810025029B1B78002BE3
S315000044004DD0DDF80C9099F80060002E47D002A838
S31500004410FFF776FF044618B103A8FFF771FFECE734
S31500004420029A1346517813F8010B0293252801D1FD
S31500004430252907D18E4232D109F1010302320393B5
S315000044400292DAE726462046A0461A7806F07C0154
S31500004450002A7CD100B1029309B3002C08BF632463
S31500004460082900F08780202900F0AA80042916D1A7
S3150000447057F8042B4946144400200E780B460131A8
S31500004480002E6AD100286FD1B7E7692A50D01ED80E
S31500004490632A52D011D8392A07D82F2A34D8E8B23D
S315000044A00BB0BDE8F04304B07047582AF7D146F088
S315000044B0200601334FF0100832E0642AEFD146F4AB
S315000044C0005646F0200601334FF00A0828E06F3AFE
S315000044D0D1B20929E3D8092AE1D801A151F822F07D
S315000044E0255520089F5420089F5420089F542008D3
S315000044F0495520089F542008C35420089F5420087B
S315000045009F542008AF542008002CC8D10A211A78DD
S31500004510303A01FB042413F8012F303A092AF6D960
S31500004520012092E746F0200601334FF00808F7E72E
S3150000453046F0200601338846F2E7012C46F00406D1
S3150000454038BF01240133EBE746F00806FAE70029F5
S315000045509BD0002881D002937FE702F8016BA2422C
S315000045604FF0010089D10B46994503933FF445AFBF
S31500004570013542E703A8FFF7C3FE039E57F8043B45
S31500004580314603EB040C00200C4611F8012B12B93E
S3150000459060B103940AE00D2A0FD8082AF8D803F868
S315000045A0012B63454FF00100EED10391039A964229
S315000045B03FF423AF00221A70DAE7202AEFD1E7E7AB
S315000045C003A8FFF79DFE039BB8F1000F10D0B8F1CA
S315000045D0100F17D11A78302A14D15A7802F0DF0258
S315000045E0582A0FD102330393023C4FF0100809E01A
S315000045F01A78302A16D15A7802F0DF02582AF1D0FA
S315000046004FF00808039B1A782B2A0ED02D2A0FD1BB
S3150000461001330393013C4FF0FF31039A0020144409
S31500004620844616E04FF00A08ECE701330393013C99
S315000046300121F2E7A9F14103052B02D920B3039228
S3150000464022E0A9F1370317E0010010000CFB083C3B
S31500004650012092F800909646B9F1000FEED0A242E2
S31500004660ECD0A9F13003DBB2092B06D9A9F161031D
S31500004670052BDFD8A9F15703DBB2984502F10102F9
S31500004680E4D808B1CDF80CE057F8043B0CFB01F177
S3150000469019606DE74FF0FF3501E700BF04480223BC
S315000046A01421C21801334B2B82F80013F9D170473D
S315000046B000E100E0064B1868002382B262F30F03A4
S315000046C0000C60F31F4382B0184602B0704700BF6B
S315000046D028852108014B1868704700BF4C0A000066
S315000046E0014803F091B800BF4C0A0000014903F0ED
S315000046F04BB800BF4C0A0000014803F023B800BFC6
S315000047004C0A000037B504460B200D4600F0EAF9C6
S31500004710064B1B680193064B00930246054B294640
S31500004720204602F0D1FD03B030BD00BF7C0C010075
S31500004730340A00004C0A0000014802F0C1BD00BF67
S315000047404C0A0000014802F0B8BD00BF4C0A000048
S315000047507FB5104BD3E90354B2F5806F2E883ABF6C
S3150000476002F1FF33C3F3090340F2FF3363F30D167F
S315000047702E80258863F30D15074B25801B68029351
S31500004780064B0193064B0093024B02F05DFD04B00D
S3150000479070BD00BF4C0A00007C0C010094080100AB
S315000047A0340A00000D4B1A69B1F5806F13B538BF96
S315000047B001F1FF33148834BFC3F3090340F2FF331A
S315000047C063F30D14064B14801B680193054B00938D
S315000047D0024A054B02F09AFC02B010BD4C0A0000DA
S315000047E07C0C010094080100340A00000D4BDA68C5
S315000047F0B1F5806F13B538BF01F1FF33148834BFAC
S31500004800C3F3090340F2FF3363F30D14064B148020
S315000048101B680193054B0093024A054B02F0C8FB47
S3150000482002B010BD4C0A00007C0C01009408010087
S31500004830340A0000024B034A1B68034902F010BB0E
S315000048407C0C0100340A00004C0A0000034B0449AA
S3150000485004484FF400129A6402F0B2BA00840424A9
S31500004860340A00004C0A000007B5064B0193064BBC
S315000048700093064A064B074902F012FA03B05DF8A8
S3150000488004FB00BF040C01007C0C0100340A00008C
S31500004890001C06244C0A0000014802F0D9B800BFEB
S315000048A0D40A0000014802F0D3B800BF900A000005
S315000048B0014802F0CDB800BF4C0A0000FFF7F8BF70
S315000048C0354BDFED366AD3F8102242F04002C3F8CA
S315000048D0102207EE900AD3F81022F4EEE67A42F0A0
S315000048E01002F1EE10FA07EE101A82B0C3F8102289
S315000048F006DCF0EE086AB4EEE67AF1EE10FA08D5B8
S31500004900D3F8102242F02002C3F81022002002B091
S3150000491070479FED237AF4EEC77AF1EE10FA10D5C0
S31500004920D3F810226FF30302C3F81022D3F8102233
S315000049306FF38612C3F81022D3F810226FF3041215
S31500004940E2E777EEC77ADFED176A134A87EEA67AB3
S31500004950F7EE007A77EE277AFCEEE77ACDED017A6C
S315000049609DF80430F6EE007A77EE277A07EE103AD5
S31500004970B8EE477AB4EEE77AF1EE10FAC2BFFCEE73
S31500004980E77ACDED017A9DF80430D2F8101263F380
S315000049900301C2F81012B9E7003804243333334058
S315000049A0CDCCCC3F0AD7A33D0A4B9A6C013A052AD7
S315000049B00ED8DFE802F003050705090B586C7047AF
S315000049C0D86A7047D86B7047186B7047586B70473A
S315000049D000207047E007010006281DD8DFE800F038
S315000049E0040A0D10131619000C4B586809B1B0FBD8
S315000049F0F1F07047094B186AF8E7084B586AF5E773
S31500004A00064B986AF2E7054BD86AEFE7034B186B3B
S31500004A10ECE7024BD868E9E70020E7E7E00701008A
S31500004A2010B5032814D8DFE800F0020A0D100F486D
S31500004A30C06A7AB1A3B981B1B0FBF1F00DE00B48C1
S31500004A40C069F6E709484069F3E708488068F0E777
S31500004A500020EEE723B909B9400810BD4900EBE78D
S31500004A60CB07FAD50229F8D9E6E700BFE00701002F
S31500004A70F8B50C461546042828D8DFE800F00321CF
S31500004A801B1E2400FFF790FF15B394B10CF050FAEB
S31500004A90064620460F460CF04BFA104B00220CF04F
S31500004AA00BF902460B46304639460CF0E5FB0CF096
S31500004AB053FDF8BD0A4BD869E6E7094B5869E3E7A9
S31500004AC0074B9868E0E7064BD868DDE70020DBE790
S31500004AD0002CEED0B0FBF4F0EBE700BF0000E03FA7
S31500004AE0E007010010B50E2800F28F81DFE810F014
S31500004AF00F001E002D005300720084009600B300C4
S31500004B00CA00DD00E70009013201600182014FF0B1
S31500004B108C43BDE81040D869D969DA69C1F3C3018D
S31500004B20C2F3407200F00700FFF7A2BF4FF08C43BC
S31500004B30BDE81040D869D969DA69C1F38321C2F3A7
S31500004B408072C0F3C210FFF793BF4FF08C42936997
S31500004B509469C3F3C233C4F3C324052B19D8DFE821
S31500004B6003F003090C0F1215FFF71EFF0CB1B0FB83
S31500004B70F4F010BD8C4B9868F8E78B4B1869F5E795
S31500004B80894B5869F2E7884BD869EFE7864BD868B6
S31500004B90ECE70020EAE74FF08C42936A946AC3F38D
S31500004BA04243C4F30554032B12D8DFE803F002088E
S31500004BB00B0EFFF7F9FE002CDBD06400D7E77A4B2B
S31500004BC05869F8E7784B9868F5E7774BD868F2E7C5
S31500004BD00020F0E74FF08C43BDE8104098699969D2
S31500004BE09A69DB69C2F34022C3F30073C1F3C501BE
S31500004BF000F00700FFF714BF4FF08C43BDE81040EC
S31500004C00D86F99699A69DB69C2F34022C3F30073CE
S31500004C10C1F3C501C0F34220FFF702BF4FF08C433A
S31500004C209B69C3F30263042B00F2EF80DFE803F015
S31500004C3003060A0D10005C4BD8689AE7BDE81040E1
S31500004C40FFF7B2BE584B986893E7574BD86990E781
S31500004C50554B58698DE74FF08C429169936992697B
S31500004C6011F4802F5049C2F3C0520CBF48698868BE
S31500004C70C3F3C3431AB1002B3FF47BAF12E083B9F1
S31500004C80400876E74FF08C439A6A9B6A12F4806F6D
S31500004C90454A0CBF9069D068C3F3C523002B3FF487
S31500004CA068AF5B00B0FBF3F063E7404B9869996926
S31500004CB0BDE81040C1F34641000FFFF78DBE3B4BE8
S31500004CC0DA69DB69C2F34302C3F34713052A16D830
S31500004CD0DFE802F00306090C0F12334A5068DDE7DD
S31500004CE0314A106ADAE7304A506AD7E72E4A906AA4
S31500004CF0D4E72D4AD06AD1E72B4A106BCEE70020C5
S31500004D00CCE72A4B1A6A1B6AC2F34302C3F3421367
S31500004D10072A1DD8DFE802F004070A0D101316193A
S31500004D20214A5068A7E7204A106AA4E71E4A506A3B
S31500004D30A1E71D4A906A9EE71B4AD06A9BE71A4A7A
S31500004D40106B98E7184AD06895E7174A506B92E7B8
S31500004D50002090E7154B1B6BC3F34303062B54D877
S31500004D6001A252F823F000BF855D20088B5D200864
S31500004D70915D2008975D20089D5D2008A35D2008B1
S31500004D80375C2008084B5868F3E6074B186AF0E6CC
S31500004D90054B586AEDE6044B986AEAE6024BD86A78
S31500004DA0E7E6014B186BE4E6E00701000014042473
S31500004DB0174B5B6BC3F34303082B26D801A252F8AB
S31500004DC023F000BF855D20088B5D2008915D2008DB
S31500004DD0975D20089D5D2008A35D2008375C2008AC
S31500004DE0E95D2008EF5D20080A4B586BC1E6094BC8
S31500004DF09869BEE6064BD86AD96ABDE81040C1F389
S31500004E004711C0F34300FFF7E7BD0020B1E600BF3E
S31500004E1000140424E0070100024B1B68D3F8BC30E1
S31500004E20184700BF00013000024B1B68D3F8CC3096
S31500004E30184700BF00013000024B1B68D3F8EC3066
S31500004E40184700BF0001300007EE100AFDEEC77AD2
S31500004E50F8EEE76AF4EEC76AF1EE10FA41BF17EE14
S31500004E60903A013307EE903AF8EEE76A16EE900AAA
S31500004E7070470000024B01219B69C0B2184700BF72
S31500004E80300D0100FFF7F6BF1346054A126810B44D
S31500004E90546C0A46A44600215DF8044B604700BFE7
S31500004EA00001300010B54FF4006003F04DF8094CD6
S31500004EB0094B4FF000725A6422782AB9074B08480A
S31500004EC01B6A01219B6A9847237843F001032370EC
S31500004ED010BD00BF801001000084042400013000D2
S31500004EE00014042482B0ADF804000A4B4FF40062AB
S31500004EF01A609DF80420084B2AB9D3F8082242F418
S31500004F000062C3F808225A68002042F001025A6083
S31500004F1002B0704700E100E0003804242DE9F04FAC
S31500004F20224B234893F81CE0224B1A7800231C4698
S31500004F3002F59875D9B28E450CD8DFF8808000232B
S31500004F40A8F5107902F5907CDAB2964509D80020CA
S31500004F50BDE8F08F30F815108C4238BF0C4601338F
S31500004F60E8E743B929F81C300133EDE7B5F820B07E
S31500004F70594489B20AE000271FFA83FABEB2B44246
S31500004F80F2D900220C4D104635F8021F8C4203D987
S31500004F90B142EBD1013080B2013292B25245F3D325
S31500004FA001370028EAD128F81360DDE7300D01004B
S31500004FB0500D01002C0D01008E0F0100900F010015
S31500004FC0012800D17047C30701D44008F8E7002044
S31500004FD0704703460120834208DC00EBD072A3EB46
S31500004FE06203B3EBA00FB8BF400870474000F2E77A
S31500004FF084B02DE9F7430AAC84E80F000023ADF82E
S3150000500006309DF8BC515F4B9DF8BD715A885B68B0
S31500005010B3FBF2F30DB9012F40D15B4901250A8894
S315000050205A4C07EE903A92B20AAB03EB820393ED29
S31500005030057AF8EE677AB8EE477AC7EE877A17EE02
S31500005040900AFFF701FF07EE900A0B88FCEEE77A5D
S315000050509BB203F5987317EE902A24F813200B8859
S315000050609BB203F5987334F81330012B06D80B88DE
S315000050709BB203F59873022224F81320444E0DF1D7
S3150000508038094FF00008B7EE006A5FFA88F39F42CE
S3150000509007D803B0BDE8F04304B070470DF1060130
S315000050A0BDE7B8F1000F17D0D9ED007A3288B8EE17
S315000050B0677AD9ED017AF8EE677AC7EE277A17EEA6
S315000050C0900AFFF7C1FE07EE900AFCEEE77A17EEAC
S315000050D0903A13FB02F37380012F08D072881046B2
S315000050E0FFF76EFF18B91046FFF773FF70808DB19A
S315000050F00B880AAA9BB202EB4303B3F8F430012BE8
S3150000510008D10B889BB203F5987334F813209208E4
S3150000511024F81320DFED1F7A00231FFA88F0984247
S31500005120ADF806300AD2F4EEC67AF1EE10FA27DCB4
S3150000513008F10108023609F10409A6E70A8892B2C5
S3150000514002F59872013334F8122007EE102AB8EEF1
S31500005150477A9BB2C6EE076A77EEA67ADFE70A8839
S3150000516092B202F59872013334F812C04FEA4C0C31
S3150000517024F812C09BB29842ADF80630EFD2D7E7BA
S315000051800023F8E7300D01002C0D0100500D010041
S31500005190AE0F01000000000007EE100ADFED087AEE
S315000051A0084837EE277AF7EE006AC6EE877AFCEEF5
S315000051B0E77A17EE903A834228BF034618467047AF
S315000051C095BFD633404B4C0084B0F0B506AC84E8AE
S315000051D00E00DFED957A002123AC0DF16B050A4632
S315000051E00B46CEB2B04200F2B080002B00F0A48095
S315000051F0B0EE007AF4EEC77AF1EE10FAB0EE047A69
S3150000520005DBF4EEC77AF1EE10FA00F1DD80F4EE7C
S31500005210C77AF1EE10FAB0EE087A05DBF4EEC77A3B
S31500005220F1EE10FA00F1D680F4EEC77AF1EE10FA3C
S31500005230B1EE007A05DBF4EEC77AF1EE10FA00F172
S31500005240CC80F4EEC77AF1EE10FAB1EE047A05DB03
S31500005250F4EEC77AF1EE10FA00F1C280F4EEC77AE6
S31500005260F1EE10FA07DBB1EE087AF4EEC77AF1EE4A
S3150000527010FA00F1B880B1EE0C7AF4EEC77AF1EECE
S3150000528010FAB2EE007A05DBF4EEC77AF1EE10FA08
S3150000529000F1AC80F4EEC77AF1EE10FAB2EE027AC3
S315000052A005DBF4EEC77AF1EE10FA00F1A280F4EE17
S315000052B0C77AF1EE10FA07DBB2EE047AF4EEC77A9B
S315000052C0F1EE10FA00F19880B2EE087AF4EEC77AA1
S315000052D0F1EE10FA06DBB2EE0C7AF4EEC77AF1EED6
S315000052E010FA61D4B3EE017AF4EEC77AF1EE10FA51
S315000052F006DBB3EE027AF4EEC77AF1EE10FA60D46A
S31500005300B3EE097AF4EEC77AF1EE10FA06DBB3EEE5
S315000053100A7AF4EEC77AF1EE10FA70D9B3EE0B7A88
S31500005320F4EEC77AF1EE10FA06DB9FED407AF4EE62
S31500005330C77AF1EE10FA74D9DFED3D7A9FED3D7A2A
S31500005340002A18BFF0EE477A65E015F8016FA6F15E
S31500005350140CBCF1020F2F7C0FD894ED007AF4EEFA
S31500005360C77AF1EE10FA03D50133DBB2F0EE477AD5
S315000053700D2F16D00131043433E7A7F10A0CBCF126
S31500005380020F0CD894ED007AB4EEE77AF1EE10FA3B
S3150000539003DD0133DBB2F0EE477A182EE9E7182E6B
S315000053A0E6D10132D2B2E5E7DFED237A9AB39FED7B
S315000053B0217AF4EEC77AF1EE10FA23D5F0EE477AA9
S315000053C029E0DFED1E7AF1E7DFED1D7AD2B1DFEDE0
S315000053D0197A20E0DFED1B7AF8E7DFED1B7AF5E7B7
S315000053E0DFED1A7AF2E7DFED1A7AEFE7DFED197AE9
S315000053F0ECE7DFED197AE9E7DFED187AE6E7DFEDAE
S31500005400187A42B19FED0A7AF4EE477AF1EE10FA75
S3150000541048BFF0EE477ABDE8F04017EE900A04B0B8
S315000054207047DFED107AECE70000000000004C4208
S3150000543095BFD6338BE16A36EFE608369F9D423636
S315000054402E5A823301A90C3437F859342439EC34F6
S3150000545034580F35AD186335883E8A35ACC5A73547
S31500005460B1B49D36F2DD1C3770B50D4616460446BE
S31500005470D0B9FFF7E1FCAA4807222146FFF704FD51
S31500005480002D40F0AA81012E00F09F810B2C1DD02B
S315000054900C2C40F0F5800520FFF7CEFCA048072233
S315000054A00521FFF7F1FC98E0012818D10220FFF74B
S315000054B0C3FC9B4807220221FFF7E6FC002D76D1AC
S315000054C0012E00F082810B2C40F0DA800320FFF7DA
S315000054D0B3FC072203219248FFF7D6FC96E0022888
S315000054E00ED10420FFF7A8FC072204218C48FFF701
S315000054F0CBFC002D00F06681012D40F0778155E14F
S31500005500032805D10620FFF797FC07220621EDE7C1
S31500005510042805D10820FFF78FFC07220821E5E7BC
S31500005520052805D10A20FFF787FC07220A21DDE7B7
S3150000553006280CD17B4B20225A601920FFF774FCF9
S315000055401920FFF769FC78480E221921B4E70728CD
S315000055501ED1744B20225A601B20FFF765FC1B20CE
S31500005560FFF75AFC0E221B216F48FFF78DFC002D1A
S3150000557000F02881012D40F0D980012E00F019811C
S315000055800C2C21D10520FFF757FC07220521A2E7A5
S31500005590082840F0FD80634B20225A601D20FFF74B
S315000055A043FC1D20FFF738FC0E221D21DCE70B2CE7
S315000055B01ED0012D40F01A81012E00F0FA800C2C2D
S315000055C0E0D00D2C00F0C1800E2C50D00F2C6FD0E7
S315000055D0102C75D12EE0022D40D0032D52D1012E74
S315000055E059D00E2C70D00F2C62D0102C30D121E067
S315000055F00320FFF721FC4A4807220321FFF744FC5A
S31500005600022D2BD0032D03D1012E44D0002070BDD6
S31500005610042D00F0A480052DDAD1012E40F0A380E0
S315000056200720FFF709FC07223D481146FFF72CFC2F
S31500005630102C5ED13B4B20225A601A20FFF7F4FB58
S315000056401A20FFF7E9FB38480E221A21FFF71CFC47
S31500005650112C50D0072D5CD1012E88E0012ED5D11A
S3150000566069E0012E67D00D2C0FD00E2CBBD109207E
S31500005670FFF7E2FB2A4807220921FFF705FCCAE7E4
S315000056800D2C62D00E2C68D1F1E70B20FFF7D4FB6E
S3150000569007220B211FE70B20FFF7CEFB204807222E
S315000056A00B21FFF7F1FB8FE70E2CE0D00F2CB2D1C8
S315000056B00720FFF7C1FB072219481146FFF7E4FB55
S315000056C0062DC5D1012E4FE00920FFF7B5FB0722B5
S315000056D0092100E70920FFF7AFFB1148072209213E
S315000056E0FFF7D2FB7FE70720FFF7A6FB072211464D
S315000056F0F1E6112C0DD10B4B20225A601C20FFF72E
S3150000570093FB1C20FFF788FB07480E221C21FFF79E
S31500005710BBFB122C2FD0082D7FF478AF012E28E08A
S3150000572000C004240000304100001346022D7FF41F
S3150000573054AF012E99D10520FFF77EFB2E48072294
S315000057400521FFF7A1FB0D2CAED10B20FFF774FB53
S31500005750294807220B21FFF797FB042DA6D1012E1E
S31500005760B8D00F2CBFD0102C3FF464AF112CC2D090
S31500005770122C7FF44BAF214B20225A601E20FFF7DC
S3150000578053FB1E20FFF748FB1D480E221E21A3E6F1
S315000057900A287FF475AE0120FFF74EFB1648072254
S315000057A00121FFF771FB012D7FF415AF012E7FF468
S315000057B02DAF0320FFF740FB0F4807220321FFF719
S315000057C063FB65E6012E7FF421AF0120FFF734FB72
S315000057D0094807220121FFF757FB0B2C3FF408AFBE
S315000057E0012D3FF4E9AE0C2C3FF455AE022D3FF4EB
S315000057F038AF0D2CA9D0F0E600C0042400003041DB
S315000058000000134682B02DE9F0410F2906AC84E86A
S315000058100C005FD8BDF82040BDF8225044EA0503CD
S31500005820B3F5806F56D22E4B079E9DF824809DF8C7
S3150000583025E043F8212001F1100701F1400C43F85F
S31500005840276001F15007B24223F81C4023F8175095
S3150000585042D0B8F1000F17D001F1300802EB440234
S31500005860C0F8D42143F8282044EAC12242F4004873
S31500005870C0F8D881D0F8D881C0F8D821D0F8D8217E
S3150000588043F82C8043F82720BEF1000F1DD001F10C
S31500005890600204EB4504344443F82240CA0202F590
S315000058A080622A43C0F8D44142F40044C0F8D8418B
S315000058B001F17004D0F8D85143F824508031C0F873
S315000058C0D821D0F8D82143F821200020BDE8F041A6
S315000058D002B070470120F9E742F20210F6E700BF76
S315000058E0500D01000F2910B528D892B1144A01F1C4
S315000058F0300452F82440C0F8D44101F1400452F873
S315000059002440C0F8D84101F1500452F82420C0F8D0
S31500005910D8218BB10A4B01F1600253F82220C0F85E
S31500005920D42101F17002803153F8222053F821303E
S31500005930C0F8D821C0F8D831002010BD0120FCE7FE
S31500005940500D010010B5274B27485A685A6842F097
S3150000595001025A60D3F8082242F48062C3F8082292
S3150000596003F5B4331A68026852BBD3F8402442F4F4
S315000059706752C3F840241D4AD2F80230DC05FBD436
S315000059801B4BD3F80427D107FBD5D3F80427D2073E
S31500005990FBD4D3F84824174C174B21681A60930898
S315000059A003F4F8530B43910001F07C0112020B4300
S315000059B002F47832134343F081032360012303602A
S315000059C00C4B1A680A4BC3F84424084AD2F8023032
S315000059D013F48073FAD1034A516863F300015160EE
S315000059E010BD00BF00380424200D0100000005246E
S315000059F000A00524280D0100240D010084B070B517
S31500005A002DED028B82B008AC84E80F00444C6E9AF0
S31500005A10A2610D9A43499DF8B531BDF8140123776B
S31500005A20013A8A4278D20DA90122934209D8012B64
S31500005A306FD19DF8B43173B101280FD942F2061027
S31500005A4060E00E4651F8045F3668B54264D8002D12
S31500005A5062D00132E9E7B0F5806FEFD2FFF722FAA4
S31500005A60314B32485A689FED328A6FF38A225A6068
S31500005A70DA686FF31842DA60DA68042161F3090222
S31500005A80DA605A682B4942F480625A60FEF718FFC2
S31500005A90294B5B686360FFF755FF02F081FB2081AD
S31500005AA002F072FB208202F081FBC0F30D0307EEC9
S31500005AB0103AB8EEC77A830BC7EE086A07EE903A3B
S31500005AC0F8EEE77A77EEA67AC4ED037A02F062FB87
S31500005AD0C0F30D0307EE103AB8EEC77A830BC7EE94
S31500005AE0086A01A807EE903AF8EEE77A002377EE07
S31500005AF0A67A0193C4ED057A03F048F8003818BF7A
S31500005B000120404202B0BDEC028BBDE8704004B0FB
S31500005B107047013B0F2B90E742F20410F2E700BFFB
S31500005B20300D0100A025260000380424333333400D
S31500005B3000007A44CDCC4C40E007010084B010B59B
S31500005B402DED028B82B006AC84E80F009DF818306C
S31500005B500F2B7FD84249434C0B706C99A16106A963
S31500005B6001EB8301404849699DF8AD21227701394F
S31500005B70814271D2012A6AD106AA02EB43039DF83B
S31500005B80AC21B3F8F43022B1012B05D942F206104C
S31500005B9056E0B3F5806FF9D2FFF784F9334B3448FA
S31500005BA05A689FED348A6FF38A225A60DA686FF377
S31500005BB01842DA60DA68042161F30902DA605A6889
S31500005BC02D4942F480625A60FEF77AFEFFF7BAFE6C
S31500005BD02A4B5B68636002F0E3FA208102F0D4FA94
S31500005BE0208202F0E3FAC0F30D0307EE103AB8EE96
S31500005BF0C77A830BC7EE086A07EE903AF8EEE77AA3
S31500005C0077EEA67AC4ED037A02F0C4FAC0F30D0368
S31500005C1007EE103AB8EEC77A830BC7EE086A01A8FA
S31500005C2007EE903AF8EEE77A002377EEA67A01932C
S31500005C30C4ED057A02F0AAFF003818BF01204042E1
S31500005C4002B0BDEC028BBDE8104004B07047013ACB
S31500005C500F2A9AE70120F3E742F20410F0E700BFAB
S31500005C602C0D0100300D0100A0252600003804246B
S31500005C703333334000007A44CDCC4C40E00701007A
S31500005C800F29024610B54FF001000CD8D2F8CC41CE
S31500005C9000FA01F32343D2F8CC119BB263F30F0150
S31500005CA0C2F8CC11002010BD0F29024610B54FF0E6
S31500005CB001000DD8D2F8CC4100FA01F343EA1443AF
S31500005CC0D2F8CC119BB263F31F41C2F8CC1100206D
S31500005CD010BD30B50F299DF80C402CD81F2A2AD8A4
S31500005CE00F2B28D8012C26D845686D060FD509013B
S31500005CF034B14518AC6B44EA835343F08063AB631D
S31500005D0001448B6B43EA42438B63002030BD5CB198
S31500005D10D0F8081241F40071C0F80812D0F8081241
S31500005D2063F34811C0F80812D0F8083262F304038E
S31500005D30C0F80832E9E70120E8E7000029B9D0F801
S31500005D40083261F3CB23C0F80832064B5B68DB07E9
S31500005D5041BF43686FF300034360002058BF4FF014
S31500005D60FF30704700380424C1B2024882B002B046
S31500005D70FFF7E4BF003804240F2915D80D4B5A68E5
S31500005D80520603D4D3F8DC31002B0FDAD0F8DC212D
S31500005D9001238B401343D0F8DC219BB263F30F023F
S31500005DA0C0F8DC2100207047012070474FF40450F2
S31500005DB0704700BF00380424B1F5007F14D2B2F555
S31500005DC0806F11D243686FF38A234360C36861F31F
S31500005DD01843C360C36862F30903C360436843F4AE
S31500005DE08063436000207047012070470F2925D843
S31500005DF0012A05D1436A6FF3D753436200207047E7
S31500005E00022A0BD1436A6FF300034362436A6FF3BE
S31500005E1004134362436A6FF3C303EEE7084BD3F8F8
S31500005E20DC31002BEADA436A0122C3F3CF138A403E
S31500005E3023EA0201436A61F3D613DEE701207047C5
S31500005E40003804240F2903464FF0010014D81A6ABB
S31500005E5000FA01F189B2186AC2F30F220A4362F30B
S31500005E60172018621A6AC2F30F2222EA0102196A7F
S31500005E7062F31721196200207047000010B510B1B7
S31500005E80012804D010BDBDE81040FFF70BB84FF451
S31500005E90006002F073F80A4A13786FF30003137078
S31500005EA0DBB2002BEED1074B07484FF000729A6425
S31500005EB0064B1B6ABDE81040DB6B0221184700BF8A
S31500005EC08010010000840424001404240001300022
S31500005ED013B50D4BADF804004FF40062C3F88020F3
S31500005EE0BFF34F8FBFF36F8F03220121002002F013
S31500005EF021FF044628B90120FFF7C0FF204602B063
S31500005F0010BD4FF0FF30FAE700E100E04368064AB3
S31500005F1061F349234360D2F8403443EA4143C2F86F
S31500005F2040340020704700BF00A0052484B02DE94E
S31500005F30F04F2DED028BF1B07CAC84E80F009DF89C
S31500005F40853365934FF4C47201237FA9684669932C
S31500005F509DED818A9DF884530CF0B2FC94E80E0006
S31500005F606598BA4CFFF730F905EE900AFFF714F979
S31500005F7094ED017A07EE900AB8EE476AF8EE677A72
S31500005F80B7EE007A87EE065AC7EE276AC6EE857A1E
S31500005F9017EE900AFEF758FF07EE900AFCEEE77A36
S31500005FA017EE903AC5EE857A9EB217EE900AFEF786
S31500005FB04BFF07EE900AFCEEE77A17EE903A9FB297
S31500005FC0BE4204BF0136B6B2002D5ED1BDF88433A1
S31500005FD027804FF4C27280A9684666809C4CADF853
S31500005FE084310CF06DFC7CAB0FCBFFF701F8FEF7AC
S31500005FF095FF324639462046FFF7DEFE0121204650
S31500006000FFF784FF6368934EDFF8409243F0006326
S315000060106360636843F040036360636865F341034C
S3150000602063603323C4F8E431636843F004036360B8
S31500006030D4F8DC3143F00043C4F8DC310DF2E2233E
S31500006040669306F18103A8AF06F13E0B67930DF543
S31500006050F878659AEBB29A4200F28D807E4B6A938D
S3150000606000227E4B6B9369A9104602F0C7FD10B162
S31500006070452840F0E78069996AAA002002F02CFEC4
S31500006080003818BF012040426EE0B8EE488A394613
S31500006090C6EE087A17EE900AFEF7D6FE07EE106AED
S315000060A007EE900AB8EEC77A6948B4EEE77AF1EEE1
S315000060B010FA49BFFCEEE77A324617EE903A9AB2EA
S315000060C04DBF6280278066802780FFF775FE01211D
S315000060D05F48FFF71BFF5E4B5A6842F000625A604A
S315000060E05A686FF386125A606A1E012A5A684FF080
S315000060F0000194BF42F0020265F341025A60C3F800
S31500006100E4115A6842F004025A60D3F8DC2161F3C4
S31500006110DF72C3F8DC219DF8F1219DF844029DF859
S3150000612054125AB1D3F8086262F34926C3F80862DA
S31500006130D3F8086261F34816C3F80862444ED6F8ED
S31500006140083260F30403C6F80832FFF78DF92A46D1
S3150000615000213046FFF74AFE62886368B3FBF2F31C
S315000061603F4A0020C2F8803271B0BDEC028BBDE818
S31500006170F04F04B0704798F854A098F864306493D0
S3150000618018F8013F6393009352462946649B2046C4
S31500006190FFF79FFD36F8021F328C012A08D0AB00AC
S315000061A003F1105303F58723A3F83811C3F87821B8
S315000061B029462046FFF7E0FDDDE963215046FFF75B
S315000061C053F929462046FFF76FFD7B6E6C93D7F88F
S315000061D0A4306D93669B33F802AF669340F20113C9
S315000061E0ADF8BC31ADF8B8A1ADF8BAA170AB13E902
S315000061F00300DDE96C238DE8030029462046FFF7FE
S3150000620001FB29462046FFF73BFD00222946204692
S31500006210FFF7ECFDB9F80220D9F80430B3FBF2F32E
S31500006220328CB3FBF2F34BF8043F57F8043FA6F861
S31500006230D0A0CBF85030679B639A03F8012F013545
S31500006240679306E74FF0FF308EE700BF300D010081
S31500006250003804248E0F0100755E2008855E200834
S31500006260500D010084B02DE9F04FEDB076AC84E816
S315000062700F009DF8D8419DF86C639DF86DA3012031
S315000062800F2C659000F21281DFF840828A4D88F863
S3150000629000404FF4C47279A968460CF011FB76AB46
S315000062A00ECB5046FEF790FF05EE900AFEF774FF00
S315000062B095ED017A07EE900AB8EE476AF8EE677A2E
S315000062C0B7EE007AC7EE276AC7EE067AC6EEA77A59
S315000062D017EE900AFEF7B8FD07EE900AFCEEE77A95
S315000062E017EE903A66EE257A9FB217EE900AFEF701
S315000062F0ABFD07EE900AFCEEE77A17EE903A1FFA2E
S3150000630083F94F4504BF0137BFB2002E51D1BDF806
S315000063106C336A4C6F804FF4C2727AA96846A5F84E
S315000063200090ADF884310CF0CBFA76AB0FCBFEF7CC
S315000063305FFEFEF7F3FD3A4649462046FFF73CFD71
S3150000634001212046FFF7E2FD63685D4F43F00063DD
S315000063506360636843F040036360636866F3410308
S3150000636063603323C4F8E431636843F00403636075
S31500006370D4F8DC3143F00043C4F8DC31F3B29A457B
S3150000638000F2A6804F4B669300224F4B679365A998
S31500006390104602F033FC10B1452840F02A81659979
S315000063A066AA002002F098FC003818BF012040427F
S315000063B07CE076AB03EB8404D4ED057AF8EE677ADD
S315000063C04946C6EE277A17EE900AFEF73DFD07EE20
S315000063D0107A07EE900AB8EEC77A3848B4EEE77A34
S315000063E0F1EE10FA49BFFCEEE77A3A4617EE903A1C
S315000063F09AB24DBF6A80A5F800906F80A5F800900C
S31500006400FFF7DAFC01212D48FFF780FD2B4B5A6878
S3150000641042F000625A605A686FF386125A60721E22
S31500006420012A5A684FF0000194BF42F0020266F357
S3150000643041025A60C3F8E4115A6842F004025A60F5
S31500006440D3F8DC2161F3DF72C3F8DC2198F8002071
S3150000645002F5EC726A4492F8540092F8641052788D
S315000064605AB1D3F8084262F34924C3F80842D3F874
